:100A3F00504D322E353A2020202075672F6D3320F0
:100A4F0000543A20202043202020483A20202552CD
:100A5F00480054656D7065726174757265205365D9
:100A6F007420002020202020202D20202020432013
:100A7F0020202000202048756D6964697479205307
:100A8F0065742020002020202020202D20202025CC
:100A9F00524820202000202020504D322E35205348
:100AAF006574202020200020202020202020207569
:0D0ABF00672F6D3320202000000000000094
:100C5B0001530020282100000000000000000000CC
:100C6B000000000000000000000000000000000079
:0E0C7B0000000000000000000000000000006B
:080E4D00E4F5E7F5E3F5E4220A
:100D8600AD07AC06E4F5E275E78375E5018CE3EDA6
:0F0D9600F5E475E64675E6B900120E4DAFE222A0
:100DC300AB07AA0675E78375E5028AE3EBF5E48DC5
:0B0DD300E275E64675E6B900020E4D21
:100DF800AD07AC0675E78375E5038CE3EDF5E4759F
:090E0800E64675E6B900020E4D44
:040D62007F0A7E0086
:100D6600E4FDFCC3ED9FEC9E5015E4FBFA0BBB00C3
:0F0D7600010AEB64704A70F50DBD00010C80E4BA
:010D8500224B
:060E3C00120E42120E42EC
:0B0E4200000000000000000000002283
:100CC000E4FFFEEEC3940874809480501F3091FDC1
:100CD000120E3C309107D20030910480FBC200EF2D
:0C0CE00025E0FFA200E43342070E80D79D
:010CEC0022E5
:100BCB00C2917F147E00120D66D291120E3C3091B1
:100BDB00FD2091FD120CC0AD07120CC0AC07120C1E
:100BEB00C0AB07120CC08F1D120CC0A907D291AF5E
:100BFB0004ED2FFFE433FEEB7583002FFFE5833EFF
:100C0B00FEE51D2FFFE5833EFEE9B50709E583B53C
:060C1B0006048B508D4F12
:010C210022B0
:10000300C292C293C2948F807F027E00120D66D289
:0700130094120D66C2942255
:070DA50012049CEF2430FF53
:100DAC00D292C293C2948F807F027E00120D66D2C3
:070DBC0094120D66C294229F
:100E28007F381200037F0C1200037F061200037F35
:040E380001020003B0
:090D1800AF4E120DDE7D057F01D6
:100D21008F1DA905EF7007E92480FF120003E51D5F
:0C0D310064017007E924C0FF12000322D7
:040C2200AF4DAE4CD8
:100C26008E1D8F1E7C007D64120DA5AE1DAF1E7C31
:100C3600007D6412049C7E007F0ACFCDCFCECCCE41
:100C4600120DA5AE1DAF1E7C007D0A12049CED247C
:050C560030FF020DACAF
:100DDE00A907E975F00A842430FF120DACE975F00D
:0A0DEE000A84E5F02430FF020DAC8A
:100D3D008B1D8A1E891FAB1DAA1EA91F120471606F
:100D4D0013051FE51F7002051E14F9120471FF1221
:050D5D000DAC80E22254
:100CED00E4FDFF120D217BFF7A0A793F120D3DE4E1
:100CFD00FD7F01120D217BFF7A0A7950120D3D7D8A
:0B0D0D00047F01120D217FDF020DACFE
:1004FF0030B203020809C2AF7F01120003E4FDFF0F
:10050F00120D217BFF7A0A7961120D3DE4FD7F0107
:10051F00120D217BFF7A0A7972120D3D7D0A7F0140
:10052F00120D217FDF120DAC7D047F01120D21AF63
:10053F004E120DDE7D077F01120D21AF4B120D1AEA
:10054F007F0F120003120D6230B2FD7F0A7E008012
:10055F004230B24420B31ED3E54E94007480948091
:10056F004002154E7D047F01120D21120D187F5E82
:10057F007E01120D6620B4D9C3E54E946374809446
:10058F00805002054E7D047F01120D21120D187F40
:10059F005E7E01120D6680B97D087F01120D21125A
:1005AF000D6230B2FD7F0A7E00805430B25620B308
:1005BF0027D3E54B9400748094804002154B7D0740
:1005CF007F01120D21AF4B120DDE7D087F01120D41
:1005DF00217F5E7E01120D6620B4D0C3E54B94637C
:1005EF00748094805002054B7D077F01120D21AF5F
:1005FF004B120DDE7D087F01120D217F5E7E0112F1
:10060F000D6680A77F01120003E4FDFF120D217B11
:10061F00FF7A0A7983120D3DE4FD7F01120D217BD4
:10062F00FF7A0A7994120D3D7D047F01120D21AFDF
:10063F004A120DDE7D077F01120D21AF49120D1AEF
:10064F00120D6230B2FD7F0A7E00804630B2482024
:10065F00B320D3E54A9400748094804002154A7DFC
:10066F00047F01120D21AF4A120D1A7F5E7E011217
:10067F000D6620B4D7C3E54A94637480948050020A
:10068F00054A7D047F01120D21AF4A120D1A7F5EBC
:10069F007E01120D6680B57D087F01120D21120DAE
:1006AF006230B2FD7F0A7E00805430B25620B327ED
:1006BF00D3E549940074809480400215497D077FEB
:1006CF0001120D21AF49120DDE7D087F01120D21A0
:1006DF007F5E7E01120D6620B4D0C3E5499463742A
:1006EF00809480500205497D077F01120D21AF498B
:1006FF00120DDE7D087F01120D217F5E7E01120D2E
:10070F006680A77F01120003E4FDFF120D217BFF1E
:10071F007A0A79A5120D3DE4FD7F01120D217BFFB1
:10072F007A0A79B6120D3D7D047F01120D21120C4C
:10073F00227D067F01120D21120D6230B2FD7F0A5C
:10074F00805A30B25E20B32BD3E54D9401E54C9423
:10075F00004008E54D154D7002154C7D047F0112C8
:10076F000D21120C227D067F01120D217FC87E0004
:10077F00120D6620B4CCC3E54D94E7E54C940350BD
:10078F0008054DE54D7002054C7D047F01120D21CA
:10079F00120C227D067F01120D217FC87E00120DE3
:1007AF0066809F7F0C120003120CED120D6230B2A7
:1007BF00FD120D627F007E20120DF8AD4E120DC39B
:1007CF00AD4B0F120DC3AD4A0F120DC3AD490F1232
:1007DF000DC3AE4CAF4D7C007D6412049CAD077F02
:1007EF00047E20120DC3AE4CAF4D7C007D6412040D
:0B07FF009C7F057E20120DC3D2AF22AC
:1009AF00E550D3954B4006C2A0D2A18011E550C3AC
:1009BF00954E5006C2A1D2A08004D2A0D2A1E54F7D
:1009CF00D395494004C2A28011E54FC3954A500800
:1009DF00C2A3D2A2C2B68006D2A2D2A3D2B6D3E508
:1009EF0052954DE551954C4029D2A5C2A6E5529599
:1009FF004DFFE551954CFE7C007DC812048AC374EF
:100A0F00F4954DFD7401954CFC12049C8F55C2A4B6
:100A1F008009E4F555C2A5C2A6D2A430A20C30A31A
:100A2F000930A00630A10320A403C29522D295223B
:100919007F007E20120D868F4E7F01120D868F4B30
:100929007F02120D868F4A7F03120D868F497F043D
:10093900120D86EF75F064A4FBAAF07F05120D86EF
:100949007E00EB2FF54DEE3AF54CAF4EEF6009D333
:100959009464748094804003754E14AF4BEF600922
:10096900D39464748094804003754B23AF4AEF603D
:1009790009D39464748094804003754A28AF49EF81
:100989006009D39464748094804003754955E54D9A
:10099900454C600BD3E54D9414E54C940540067520
:0609A9004C00754DC82250
:10080A00E4F50BF50AF509F508F50CF50D780E7CFB
:10081A0000FD7BFF7A0A79C7FE7F0512044BE4F5D7
:10082A0016F515F514F513F51AF519F518F517F562
:10083A001B120E55120E28120CED120919120E1166
:10084A007F01120B588F0CAB16AA15A914A813C056
:10085A0000C001C002C003AC0CE41202C6D003D02F
:10086A0002D001D0001200258F168E158D148C131C
:10087A00050DD3E50D9403748094804055E4F50D7D
:10088A00FFFE7D807C3EAB16AA15A914A81312019F
:10089A00168F1A8E198D188C17E4F516F515F5149E
:1008AA00F513FBFA7980784312021FE4FBFA79FA0E
:1008BA0078431201168F0B8E0A8D098C081202FAE0
:1008CA008E518F527D07E4FF120D21AF52AE5112A5
:1008DA000C26C2AF120BCBD2AF7D027F01120D21C3
:1008EA00AF50120DDE7D0B7F01120D21AF4F120D9D
:1008FA00DE1209AFE4F51CC3E51C941E74809480D3
:0F090A00400302084A1204FF120D62051C80E828
:070E5500D297C296D2B7222A
:100B5800E4FEFDC297C296D2B700D29600C296D2E2
:100B6800B700D29600C296EF7004C2B78002D2B71F
:100B780000D29600C296D2B7E4FFEFC394087480FF
:100B880094805012D29600C296EE25E0FE30B7034C
:100B98004306010F80E4E4FFEFC394087480948057
:100BA8005012EDC313FD30B703430580D29600C23F
:100BB800960F80E4D296D297D2B7EEB50502FF22FF
:020BC8007F00AC
:010BCA002208
:060C8900015500015400BA
:100E1100C2B153890F438910758B9C758DFFC28FA9
:070E2100D2ABD2AFD28E224A
:03001B00020C9044
:040C9000C0E0C0D030
:100C9400C28E758DFF758B9CE554D395555004D247
:100CA400B18002C2B10554C3E55494C874809480E1
:070CB4004003755400D28ECD
:050CBB00D0D0D0E032B2
:10001E00020366E86480F8E933E83360110460F0A7
:10002E00ED33EC337009E8FCE9FDEAFEEBFF220448
:10003E0060DED3EB9FEA9EE99DE8C2E78CF0C2F743
:10004E0095F0400CE8CCF8E9CDF9EACEFAEBCFFB0F
:10005E0012033185D0F05804700320D5B3E8047034
:10006E00075002B2D502037092D5EC0460F7E4CCCF
:10007E00C0E0C398F8603B94186008400DD0E0FBD8
:10008E00020348E4FBFAC9FC8028E830E406E4C920
:10009E00FBE4CAFCE830E305E4C9CACBFCE854072C
:1000AE006010F8C3E913F9EA13FAEB13FBEC13FC37
:1000BE00D8F130F52FC3E49CFCEF9BFFEE9AFEEDDA
:1000CE0099FDD0E0FBEF4E4D4C701222DB03020384
:1000DE006DEC2CFCEF33FFEE33FEED33FDED30E730
:1000EE00EB020348EF2BFFEE3AFEED39FDD0E0FBBD
:1000FE0050130BBB0003020370ED13FDEE13FEEF66
:08010E0013FFEC13FC0203488F
:10011600EC4D6011E8497017ED33EC3304600DE4E3
:10012600FCFFFEFD22E933E8330470F80203661291
:10013600033158046009E4CC248150062850090292
:10014600037028400302036DC0E0EB4A7044B98097
:1001560006D0E0FB02035CEF4E701CBD8008EBFF8F
:10016600EAFEE9FD80EBE98DF0A4FEE5F00201FF71
:10017600E9CDF9EAFEEBFFEF89F0A4FCE5F0CE89C4
:10018600F0A42EFFE435F0CD89F0A42DFEE435F081
:100196008067EF4E7005BD80D780C3EF8BF0A4ACAF
:1001A600F0EE8BF0A42CFCE435F0F8EF8AF0A42CEA
:1001B600E5F038FCE433CB8DF0A42CFCE5F03BF8FD
:1001C600EE8AF0A42CFCE5F038F8E433CF89F0A4ED
:1001D6002CFCE5F038CF3400CE89F0A42FFFE5F0F3
:1001E6003EFEE433C98DF0A42EFEE5F039CD8AF04B
:1001F600A42FFFE5F03EFEE43DFD33D0E0FB5007C3
:100206000BBB000F020370EC2CFCEF33FFEE33FE4A
:06021600ED33FD02034878
:10021C00020370EC5D046005E85904700302036688
:10022C00120331580460F6EC4860F2EC7004FDFEE9
:10023C00FF22C860DB2481C85009C39860025006B5
:10024C0002036D9850CAF582E9294B4A7005AB82BE
:10025C0002035C75F0007C1A7880C3EF9BEE9AED7C
:10026C0099400DC3EF9BFFEE9AFEED99FDE842F02D
:10027C00DC23ACF0D0E0FFD0E0FED0E0FDAB822080
:10028C00E7101BEB60BAEC2CFCEF33FFEE33FEED0A
:10029C0033FD020348E803F830E705C0F075F000C1
:1002AC00EF2FFFEE33FEED33FD40B830E7C280AAEE
:1002BC0075F020800E75F010800575F0087D007EBD
:1002CC00007F003392D530D5031204F1EC3340108B
:1002DC00EF33FFEE33FEED33FDEC33FCD5F0ED22C6
:0E02EC00E5F0247EA2D513CC92E7CDCEFF2202
:1002FA00EDD2E7CD33EC3392D524814006E4FFFEFC
:10030A00FDFC22FCE4CFCECDCC24E0501174FF805A
:10031A00EDC3CC13CCCD13CDCE13CECF13CF0470F7
:07032A00F030D5DE0204F102
:10033100E9D2E7C933E833F892D5EDD2E7CD33EC12
:0703410033FC5002B2D5228B
:10034800EC30E7100FBF000C0EBE00080DBD000416
:100358000BEB6014A2D5EB13FCED92E7FD2274FFC2
:10036800FCFDFEFF22E480F8A2D574FF13FC7D801B
:03037800E480EF2F
:03000000020ACC25
:0C0ACC00787FE4F6D8FD758155020B130D
:10037B00E709F608DFFA8046E709F208DFFA803E64
:10038B0088828C83E709F0A3DFFA8032E309F60851
:10039B00DFFA8078E309F208DFFA807088828C83B9
:1003AB00E309F0A3DFFA806489828A83E0A3F6086D
:1003BB00DFFA805889828A83E0A3F208DFFA804C47
:1003CB0080D280FA80C680D4806980F2803380101E
:1003DB0080A680EA809A80A880DA80E280CA803387
:1003EB0089828A83ECFAE493A3C8C582C8CCC583FF
:1003FB00CCF0A3C8C582C8CCC583CCDFE9DEE780CF
:10040B000D89828A83E493A3F608DFF9ECFAA9F04D
:10041B00EDFB2289828A83ECFAE0A3C8C582C8CCA3
:10042B00C583CCF0A3C8C582C8CCC583CCDFEADEBC
:10043B00E880DB89828A83E493A3F208DFF980CC1E
:10044B0088F0EF60010E4E60C388F0ED2402B40417
:10045B000050B9F582EB2402B4040050AF232345BE
:06046B0082239003CB7315
:10047100BB010689828A83E0225002E722BBFE0289
:09048100E32289828A83E49322BC
:10048A00EF8DF0A4A8F0CF8CF0A428CE8DF0A42E86
:02049A00FE2240
:10049C00BC000BBE0029EF8DF084FFADF022E4CC44
:1004AC00F875F008EF2FFFEE33FEEC33FCEE9DEC0D
:1004BC00984005FCEE9DFE0FD5F0E9E4CEFD22ED53
:1004CC00F8F5F0EE8420D21CFEADF075F008EF2F9D
:1004DC00FFED33FD4007985006D5F0F222C398FD8E
:0504EC000FD5F0EA222B
:0E04F100C3E49FFFE49EFEE49DFDE49CFC221C
:100AD80002080AE493A3F8E493A34003F68001F222
:100AE80008DFF48029E493A3F85407240CC8C3331F
:100AF800C4540F4420C8834004F456800146F6DFEE
:100B0800E4800B0102040810204080900C5BE47E16
:100B1800019360BCA3FF543F30E509541FFEE493E2
:100B2800A360010ECF54C025E060A840B8E493A3A9
:100B3800FAE493A3F8E493A3C8C582C8CAC583CAD4
:100B4800F0A3C8C582C8CAC583CADFE9DEE780BE8C
:010C8F000064
:00000001FF
